:100000000C9434000C943E000C943E000C943E0082
:100010000C943E000C943E000C943E000C943E0068
:100020000C943E000C943E000C943E000C943E0058
:100030000C943E000C943E000C943E000C943E0048
:100040000C943E000C943E000C943E000C943E0038
:100050000C943E000C943E000C943E000C943E0028
:100060000C943E000C943E0011241FBECFEFD8E04C
:10007000DEBFCDBF0E944D000C9466000C940000C2
:1000800091E0892708958111862F0895882319F01A
:1000900081E08627089581E008958AB18AB9259A7A
:1000A00030E289B1982F9870282F207182FF0AC002
:1000B00021110AC015B889B1982F9870282F207186
:1000C00082FDF6CF9111F4CF35B9EBCFF894FFCF85
:00000001FF
